:020000040800F2
:100000000080012091050008E1050008E1050008D5
:10001000E1050008E1050008E10500080000000016
:10002000000000000000000000000000E1050008E2
:10003000E105000800000000E1050008E1050008F6
:1000400000000000E1050008E1050008E1050008E6
:10005000E1050008E1050008E1050008E1050008E8
:10006000E1050008E1050008E105000800000000C6
:100070000000000000000000000000000000000080
:100080000000000000000000E10500080000000082
:10009000000000000000000000000000E105000872
:1000A000E1050008E1050008E1050008E105000898
:1000B000E1050008E105000800000000E105000876
:1000C000E1050008E1050008E1050008E105000878
:1000D000E105000800000000000000000000000032
:1000E000E1050008E1050008E10500080000000046
:1000F0000000000000000000000000000000000000
:1001000000000000E105000800000000E105000813
:1001100000000000000000000000000000000000DF
:1001200000000000000000000000000000000000CF
:1001300000000000000000000000000000000000BF
:10014000000000000000000000000000E1050008C1
:10015000000000000000000000000000000000009F
:10016000E1050008E10500080000000000000000B3
:10017000000000000000000000000000000000007F
:1001800000000000E1050008000000000000000081
:04019000E10500087D
:1001940010B5054C237833B9044B13B10448AFF3BD
:1001A40000800123237010BD2C04002000000000F7
:1001B4004807000808B5034B1BB103490348AFF3D4
:1001C400008008BD0000000030040020480700083B
:1001D40080B400AF254B0022DA60244B1B68234A0D
:1001E40043F001031360214B00229A601F4B1B68EC
:1001F4001E4A23F0867323F4803313601B4B1C4A7E
:100204005A601A4B1B68194A43F48033136000BFC9
:10021400164B1B6803F40033002BF9D0134B9B6877
:10022400124A43F414439360104B124A5A600F4B22
:100234001B680E4A43F08073136000BF0B4B1B68AE
:1002440003F00073002BF9D0084B9B68074A43F076
:100254000203936000BF054B9B6803F00C03082B5B
:10026400F9D100BFBD465DF8047B704700380240F9
:1002740010300024042A400780B400AF134B1B6CD9
:10028400124A43F0010313644FF080431B889BB26E
:100294004FF0804223F010039BB213804FF0804351
:1002A40053221A854FF0804301229A824FF08043F3
:1002B4001B889BB24FF0804243F001039BB2138032
:1002C40000BFBD465DF8047B704700BF00380240A4
:1002D40080B483B000AF786002E07B68013B7B6050
:1002E4007B68002BF9D100BF0C37BD465DF8047B59
:1002F40070470000B0B592B000AF164B3C1D1D46D0
:100304000FCD0FC40FCD0FC40FCD0FC495E80F0050
:1003140084E80F00104B5B690F4A43F001035361FB
:1003240000237B640EE07B6C9B0007F148021344BE
:1003340053F8442C094B5A610948FFF7C9FF7B6CF9
:1003440001337B647B6C0F2BEDDD00BF4837BD466A
:10035400B0BD00BFB4070008000002400010024016
:1003640090D0030080B584B000AFFFF731FFFFF7F2
:1003740083FF2B4B1B6B2A4A43F001031363284B67
:100384001B6B274A43F0100313630023FB600DE04B
:10039400244B1B68FA685200012101FA02F211464B
:1003A400204A0B431360FB680133FB60FB68072B97
:1003B400EEDD0023BB600DE01B4B1B68BA685200E6
:1003C400012101FA02F21146174A0B431360BB687C
:1003D4000133BB60BB68082BEEDD0B237B6018E0A8
:1003E400104B1B687A685200032101FA02F2D243CF
:1003F40011460C4A0B4013600B4BDB6801217A68F1
:1004040001FA02F21146084A0B43D3607B680133B8
:100414007B607B680D2BE3DDFFF76CFFFCE700BF1F
:1004240000380240000002400010024080B500AFD6
:10043400164BD3F88830154A43F47003C2F8883059
:10044400134B1B68124A43F001031360104B002244
:100454009A600F4B1B680E4A23F0847323F4803395
:1004640013600B4B0B4A5A60094B1B68084A23F470
:1004740080231360064B0022DA6000F00DF8034B72
:100484004FF000629A6000BF80BD00BF00ED00E045
:10049400003802401030002480B483B000AF002341
:1004A4007B6000233B60354B1B68344A43F4803344
:1004B4001360324B1B6803F400333B607B680133E9
:1004C4007B603B68002B03D17B68B3F5A04FF0D170
:1004D4002A4B1B6803F40033002B02D001233B603A
:1004E40001E000233B603B68012B40D1234B1B6C94
:1004F400224A43F080531364214B1B68204A43F47F
:10050400404313601D4B1D4A9B6893601B4B1B4A61
:100514009B689360194B9B68184A43F4805393601B
:10052400164B184A5A60154B1B68144A43F08073E3
:10053400136000BF114B1B6803F00073002BF9D04C
:10054400114B40F202721A600C4B9B680B4A23F069
:1005540003039360094B9B68084A43F002039360CA
:1005640000BF064B9B6803F00C03082BF9D100BFB6
:100574000C37BD465DF8047B704700BF003802406D
:100584000070004019544107003C02400D48854664
:100594000D480E490E4A002302E0D458C4500433D7
:1005A400C4188C42F9D30B4A0B4C002301E01360AE
:1005B4000432A242FBD3FFF739FF00F011F8FFF732
:1005C400D1FEFEE700800120000000202C04002062
:1005D400040800082C0400206C040020FEE700003E
:1005E40070B50D4E0D4D761BB61006D000240134A7
:1005F40055F8043B9847A642F9D1094E094D761B9C
:1006040000F0A0F8B61006D00024013455F8043BDD
:100614009847A642F9D170BDF8070008F80700080A
:1006240000080008F8070008024B13B1024800F064
:1006340005B87047000000004D060008002301467D
:100644001A46184600F01EB838B50A4C0A4D641B09
:10065400A4100AD004F18043013B05EB8305013C5F
:1006640055F804399847002CF9D1BDE8384000F01A
:100674006FB800BF0408000800080008704700BFF6
:10068400704700BF2DE9F8432B4D0646286898466D
:100694000F469146FFF7F2FF284B1C68D4F8483107
:1006A400002B3DD05A681F2A0DDC02F1010C16BB49
:1006B4000232C3F804C0286843F82270FFF7E0FF51
:1006C4000020BDE8F8831E4B7BB34FF4C870AFF332
:1006D4000080034648B3D4F848210021C0E9002132
:1006E4004FF0010CC4F848010A46C0F88811C0F85C
:1006F4008C11002EDCD003EB82010124C1F8889018
:10070400D3F8880194402043022EC3F88801C1F82D
:100714000881CDD1D3F88C110C43C3F88C41C7E7C1
:1007240004F5A673C4F84831BCE72868FFF7A8FFAE
:100734004FF0FF30C5E700BF28040020F40700088D
:1007440000000000F8B500BFF8BC08BC9E46704726
:0C075400F8B500BFF8BC08BC9E4670471A
:100760000008024004000800100020000200010000
:10077000140000003F000000300000006D00000089
:1007800079000000720000005B0000005F000000C4
:10079000310000007F0000007300000077000000BF
:1007A0005E0000000F0000007C0000004F00000011
:1007B000470000003F000000300000006D00000016
:1007C00079000000720000005B0000005F00000084
:1007D000310000007F00000073000000770000007F
:1007E0007F0000000F0000003F0000004F000000ED
:0807F00047000000000000209A
:0807F8002D060008B9010008FC
:040800009501000856
:1008040000000000EC02002054030020BC03002080
:1008140000000000000000000000000000000000D4
:1008240000000000000000000000000000000000C4
:1008340000000000000000000000000000000000B4
:1008440000000000000000000000000000000000A4
:100854000000000000000000000000000000000094
:100864000000000000000000000000000000000084
:100874000000000000000000000000000000000074
:100884000000000000000000000000000000000064
:100894000000000000000000000000000000000054
:1008A4000000000000000000010000000000000043
:1008B4000E33CDAB34126DE6ECDE05000B00000008
:1008C4000000000000000000000000000000000024
:1008D4000000000000000000000000000000000014
:1008E4000000000000000000000000000000000004
:1008F40000000000000000000000000000000000F4
:0C0C240000000000000000004804002058
:040000050800059159
:00000001FF
